:020000040000fa
:080000000001040000000000f3
:020000040000fa
:04000800ea05000005
:020000040000fa
:04000c00ea05000001
:020000040000fa
:04001000ea050000fd
:020000040000fa
:04001400ea050000f9
:020000040000fa
:04001800ea050000f5
:020000040000fa
:04001c00ea050000f1
:020000040000fa
:04002000ea050000ed
:020000040000fa
:04002400ea050000e9
:020000040000fa
:04002800ea050000e5
:020000040000fa
:04002c00ea050000e1
:020000040000fa
:04003000ea050000dd
:020000040000fa
:04003400ea050000d9
:020000040000fa
:04003800ea050000d5
:020000040000fa
:04003c00ea050000d1
:020000040000fa
:04004000ea050000cd
:020000040000fa
:04004400c4040000f0
:020000040000fa
:04004800960400001a
:020000040000fa
:04004c00ea050000c1
:020000040000fa
:04005000ea050000bd
:020000040000fa
:04005400ea050000b9
:020000040000fa
:04005800ea050000b5
:020000040000fa
:04005c00ea050000b1
:020000040000fa
:04006000ea050000ad
:020000040000fa
:04006400ea050000a9
:020000040000fa
:04006800ea050000a5
:020000040000fa
:04006c00440200004a
:020000040000fa
:04007000ea0500009d
:020000040000fa
:04007400ea05000099
:020000040000fa
:04007800ea05000095
:020000040000fa
:04007c00ea05000091
:020000040000fa
:04008000ea0500008d
:020000040000fa
:04008400ea05000089
:020000040000fa
:04008800ea05000085
:020000040000fa
:04008c00ea05000081
:020000040000fa
:04009000ea0500007d
:020000040000fa
:04009400ea05000079
:020000040000fa
:04009800ea05000075
:020000040000fa
:04009c00ea05000071
:020000040000fa
:0400a0001205000045
:020000040000fa
:0400a400f404000060
:020000040000fa
:0400a800ea05000065
:020000040000fa
:0400ac00ea05000061
:020000040000fa
:0400b000ea0500005d
:020000040000fa
:0400b400ea05000059
:020000040000fa
:0400b800ea05000055
:020000040000fa
:0400bc00ea05000051
:020000040000fa
:0400c000ea0500004d
:020000040000fa
:0400c400ea05000049
:020000040000fa
:0400c800ea05000045
:020000040000fa
:0400cc00ea05000041
:020000040000fa
:0400d000ea0500003d
:020000040000fa
:0400d400ea05000039
:020000040000fa
:0400d800ea05000035
:020000040000fa
:0400dc00ea05000031
:020000040000fa
:0400e000ea0500002d
:020000040000fa
:0400e400ea05000029
:020000040000fa
:0400e800ea05000025
:020000040000fa
:0400ec00ea05000021
:020000040000fa
:0400f000ea0500001d
:020000040000fa
:0400f400ea05000019
:020000040000fa
:0400f800ea05000015
:020000040000fa
:0400fc00ea05000011
:020000040000fa
:04010000ea0500000c
:020000040000fa
:04010400ea05000008
:020000040000fa
:04010800ea05000004
:020000040000fa
:04010c00ea05000000
:020000040000fa
:04011000ea050000fc
:020000040000fa
:04011400ea050000f8
:020000040000fa
:04011800ea050000f4
:020000040000fa
:04011c00ea050000f0
:020000040000fa
:04012000ea050000ec
:020000040000fa
:04012400ea050000e8
:020000040000fa
:04012800ea050000e4
:020000040000fa
:04012c00ea050000e0
:020000040000fa
:040130003005000096
:020000040000fa
:04013400ea050000d8
:020000040000fa
:04013800ea050000d4
:020000040000fa
:04013c00ea050000d0
:020000040000fa
:04014000ea050000cc
:020000040000fa
:04014400ea050000c8
:020000040000fa
:04014800ea050000c4
:020000040000fa
:04014c00ea050000c0
:020000040000fa
:04015000ea050000bc
:020000040000fa
:04015400ea050000b8
:020000040000fa
:04015800ea050000b4
:020000040000fa
:04015c00ea050000b0
:020000040000fa
:04016000ea050000ac
:020000040000fa
:04016400ea050000a8
:020000040000fa
:04016800ea050000a4
:020000040000fa
:04016c008205000008
:020000040000fa
:040170006405000022
:020000040000fa
:04017400460500003c
:020000040000fa
:04017800ea05000094
:020000040000fa
:04017c00ea05000090
:020000040000fa
:04018000ea0500008c
:020000040000fa
:04018400d40500009e
:020000040000fa
:04018800b6050000b8
:020000040000fa
:04018c0098050000d2
:020000040000fa
:04019000ea0500007c
:020000040000fa
:04019400ea05000078
:020000040000fa
:04019800ea05000074
:020000040000fa
:04019c00ea05000070
:020000040000fa
:0401a000ea0500006c
:020000040000fa
:0401a400ea05000068
:020000040000fa
:0401a800ea05000064
:020000040000fa
:0401ac00ea05000060
:020000040000fa
:0401b000ea0500005c
:020000040000fa
:0401b400ea05000058
:020000040000fa
:0401b800ea05000054
:020000040000fa
:0401bc00ea05000050
:020000040000fa
:0401c000ea0500004c
:020000040000fa
:0401c400ea05000048
:020000040000fa
:0401c800ea05000044
:020000040000fa
:0401cc00ea05000040
:020000040000fa
:0401d000ea0500003c
:020000040000fa
:0401d400ea05000038
:020000040000fa
:0401d800ea05000034
:020000040000fa
:0401dc00ea05000030
:020000040000fa
:0401e000ea0500002c
:020000040000fa
:0401e400ea05000028
:020000040000fa
:0401e800ea05000024
:020000040000fa
:0401ec00ea05000020
:020000040000fa
:0401f000ea0500001c
:020000040000fa
:0401f400ea05000018
:020000040000fa
:0401f800ea05000014
:020000040000fa
:0401fc00ea05000010
:020000040000fa
:10020000cf1a23000eff27000e0188000000000017
:10021000000020000000e000020032000001200089
:100220002002880014000700a90207000000e00077
:1002300003003a00402125000100200002003700a1
:100240000000200001002000810f7000010032003a
:1002500014000700000020000000e000020032004f
:100260000000020000000000344e02000000000008
:100270000040da000000fe004440a900c011200048
:100280000000e00003003200002020009001880000
:100290004440a800000006008a1f78008b1f7800e9
:1002a00000000600a1028800800478000000eb0036
:1002b0001f003700e284440054a0b4009905ba003e
:1002c000e284440054a0b4009906ba00e2844400d9
:1002d00054a0b4000006eb00476fde00fd07b2003b
:1002e000ae018800636ce10003003a00eaff0700fa
:1002f0000000eb000e003700606ce10008003a00df
:10030000004deb000a05e800020039003420ec0043
:100310000af0a0008b05e900f9ff3e000400370059
:100320006168e100010032000086eb000b0007006d
:1003300019c7ba001905ba000e04e00003003a001c
:100340000a00e000dbff3a0000000600fe07b200f2
:10035000ae0288008a047800f5ff37000cd0a300b5
:10036000e20f4d001c00390089027800354dba00bb
:100370000a05e800020039003420ec000af0a00071
:100380008b05e9000f003200254dba000a05e80090
:10039000020039003420ec000af0a0008b05e900cf
:1003a000080032000c00e0000600320015cdba0053
:1003b0000a05e800020039003420ec000af0a00031
:1003c0008b05e9008984e80054a0b4000b00e0002c
:1003d000e2ff3a00000006009902ba00055d7800cd
:1003e0008b05e900f7ff3200c82ade00055d7800c2
:1003f0008b05e900f3ff32000c00e000f1ff320052
:1004000019ddba00eeff3700fe40040000000000d6
:100410009e40040000000000ea43040000000000c9
:100420008a43040000000000d646040000000000db
:100430007646040000000000e828040000000000e8
:10044000265404000000000058380400000000009a
:100450005457040000000000c63d040000000000e6
:10046000585d0400000000000607040000000000c2
:10047000de0b040000000000221a0400000000004f
:1004800000000400000000003600f800809fbe005d
:10049000829fbe00849fbe00869fbe000000fa00bf
:1004a0008a20a900f124800000082000008060005c
:1004b0000000e000080032009ee4a9003228ef00ae
:1004c000c0418000200090008000eb00010878000f
:1004d0003828ef000e013700904180008000eb00cb
:1004e000b200200003002000820f5000838f5800cc
:1004f000fd003e00006001000b0037003a003700ad
:10050000760037009d003700f4003700c90037003f
:10051000da003700f1003700dc003700f200370066
:100520003500370051003700a082200020009000e5
:10053000620060000000e000f4003a00a0822000a9
:1005400010009000c0418800a082200010009000a0
:100550001040780034e8b700a0822000100090001e
:1005600010009000b0418800a08220001000900090
:10057000e6004000a082200011009800a082200028
:1005800090009000a0182300808f500003003a00d4
:10059000a08220004118230011009800a0822000b2
:1005a00020019000e1ff2f008100610021009800f0
:1005b000a082200090009000a0822000100078000f
:1005c000808f500004003a00a0822000a00090001c
:1005d0000110a000210098009a04a800200020002b
:1005e00090418800ca0037009a24a800200020000b
:1005f00090418800c6003700f124800000002800e8
:10060000008060000000e00008003200a0822000ae
:10061000604090008040e800a08220006140980087
:1006200040002000c1260700b9003700d0418000fb
:100630008000d100f00f200000806000b02488000e
:10064000d041800061006000004078000004e000bc
:1006500003003200b000200090418800ac00370059
:100660003000200090418800a9003700f12480006c
:1006700000002800008060000000e0000800320058
:10068000a0822000604090008040e800a08220000e
:100690006140980040002000a42607009c0037001d
:1006a0009a24a800d04180004800de00e6006000e7
:1006b000000f200001007000d0418800d041800070
:1006c0000000a000d041880010c0b3003ce8b70093
:1006d00020002000904188008d0037003cc8bf00fa
:1006e000e14f50000a003200b04180001000780055
:1006f000d0418800b041800020009000f041880087
:10070000b04180002040900040e8b7000100370071
:100710003c68ef00d1418000f00f2000808f500036
:1007200009003600d04180004800de00e60060008d
:10073000000f200001007000b0248800a0002000fd
:100740009041880072003700d0418000b0248800ba
:10075000d041800061006000004078000004e000ab
:1007600003003200500020009041880068003700ec
:10077000300020009041880065003700f12480009f
:1007800000002800008060000000e0000900320046
:10079000a0822000604090008040e800a0822000fd
:1007a000614098009fe4a900500020005f260700e8
:1007b0005700370040c8bf008080fb008100e9007f
:1007c000cf08de00814078000040e90040e8b70033
:1007d0000104e00010003200b041800066004000db
:1007e000b041880034c8bf000040e90034e8b700d9
:1007f00034c8bf000004e00003003a0020002000dd
:100800004a260700420037009a24a8002000200052
:10081000904188003e003700f04180009040780011
:100820008180fb00b12488000000e800f0418800ce
:1008300037003700f12480000000280000806000ad
:100840000000e00009003200a0822000604090001b
:100850008040e800a0822000614098004000200015
:10086000322607009fe4a900290037009a64a800f7
:100870008000200090418800250037008000200083
:10088000904188009a64a80021003700f041800060
:10089000a124800081407800014878000000e80031
:1008a000f041880040c8bf000040e90040e8b700c0
:1008b00040c8bf000004e000040032009aa4a90070
:1008c0006000200090418800020037009aa4a80030
:1008d000052607009a84a8000d003700200020009c
:1008e000122607000a003700a08220006040900016
:1008f0008040e800a0822000614098006000200055
:100900000a26070000000000010037000000000078
:100910000080fa004f03be004f02be004f01be0030
:100920004f00be003600f900004006003600f80017
:10093000809fbe00829fbe00849fbe00869fbe0037
:100940000000fa00062a0700101a23001040780061
:100950008040e800101a230001487800001a2300a4
:1009600011c0b300014878008900a9000080fa0096
:100970004f03be004f02be004f01be004f00be003d
:100980003600f900004006003600f800809fbe00e7
:10099000829fbe00849fbe00869fbe000000fa00ba
:1009a00004130700792b0700301a23001040780049
:1009b0008040e800301a230001487800201a230004
:1009c00011c0b3000148780088e0a9000080fa0057
:1009d0004f03be004f02be004f01be004f00be00dd
:1009e0003600f900004006003600f800809fbe0087
:1009f000829fbe00849fbe00869fbe000000fa005a
:100a000040428000000001000080fa004f03be0059
:100a10004f02be004f01be004f00be003600f9007d
:100a2000004006003600f800809fbe00829fbe0096
:100a3000849fbe00869fbe000000fa0050428000e6
:100a4000000001000080fa004f03be004f02be000c
:100a50004f01be004f00be003600f9000040060006
:100a6000801f78000000fa00801d80006200600096
:100a70000000e00001003200b023a9009040a9006e
:100a80000080fa004f007800004006003600f800b1
:100a9000809fbe00829fbe00849fbe00869fbe00d6
:100aa0000000fa0060428000000001000080fa00af
:100ab0004f03be004f02be004f01be004f00be00fc
:100ac0003600f900004006003600f800809fbe00a6
:100ad000829fbe00849fbe00869fbe000000fa0079
:100ae00070428000000001000080fa004f03be0049
:100af0004f02be004f01be004f00be003600f9009d
:100b000000400600801f78000000fa00301e8000c0
:100b1000620060000000e00001003200c623a9006e
:100b20009220a9000080fa004f00780000400600e3
:100b30003600f800809fbe00829fbe00849fbe00ea
:100b4000869fbe000000fa00804280000000010085
:100b50000080fa004f03be004f02be004f01be00ee
:100b60004f00be003600f900004006003600f800d5
:100b7000809fbe00829fbe00849fbe00869fbe00f5
:100b80000000fa0090428000000001000080fa009e
:100b90004f03be004f02be004f01be004f00be001b
:100ba0003600f90000400600801f78000000fa00bf
:100bb000901e8000620060000000e0000100320032
:100bc000d223a90092e0a9000080fa004f0078002b
:100bd000004006000040da000000fe000a00fa00b3
:100be00011002000b1bf9f00c0bf9f006a80570066
:100bf000e20c07004fb897000080fa0000000600e2
:100c00000a00fa0051002000b1bf9f00c0bf9f0042
:100c10006a805700db0c07005fb897000080fa007d
:100c200000000600889fbe0080047800508d81007f
:100c30000000e00004003a000e0007000084eb0012
:100c40000000e00008003500588d81000900e00038
:100c50000500320009004400060007000000e00023
:100c600001003d000084eb00080078004f04be0046
:100c700000000600800078000100e00003003a0058
:100c800000002000508d8900000005000080eb006e
:100c900002002000828f500002003e00518d89002a
:100ca0000000eb00000006000600fa00000f7800cc
:100cb00011079800220798001e009000ae009000d7
:100cc000d42207002e0090000080fa0000000600e9
:100cd000000005000098be000298be000498be0007
:100ce0000698be000898be000a98be000c98be0088
:100cf0000e18780064985700efb897000118780034
:100d0000ffb8970001187800000005000100e0001e
:100d100001003a0011002000010878007c0040002a
:100d200030077800b0077800b01f7800a01f780067
:100d3000640050004006be004005be004004be00f6
:100d40004003be004002be004001be004000be00a5
:100d50000000060080017800020037008159780009
:100d60000201e9000200e000fcff3a00000006007a
:100d7000a1fb22005a0237000001780082017800ae
:100d80003204e000fdff3a0003017800b141780031
:100d9000035978000304e000fcff3a00000006005d
:100da00000017800b1417800035978000304e000a5
:100db000fcff3a0000000600800078000101780086
:100dc0003104e000fdff3a00000051000000060081
:100dd0008001780002003700845978000201e900a0
:100de0000200e00006003200314278000404e00016
:100df000f9ff3a00020037008059eb000201e900d8
:100e00000200e000fcff3a0000000600889fbe00e0
:100e100000047800010078008204780088017800de
:100e2000090178001100200079040700890f5000a3
:100e3000010032000004eb00080078004f04be00ff
:100e4000000006000000fa00e88157004fb9970043
:100e5000a1fb220060702000020007000080fa0061
:100e6000000006006200fa00889fbe008a1f78001a
:100e7000000578008104780002047800830078007f
:100e800080f92f000f0040004a0207009a979f0048
:100e9000a9979f000000eb00b09f9f001885fb0002
:100ea0008a04fb000a05ea004f55de0050022000cc
:100eb000808f54000d003200e10f55000b003a0006
:100ec0000a017800880078002f9097009f91970082
:100ed00003000100a0979f000000e0008e00320098
:100ee0003f9897000000e800b09f9f000a0444006c
:100ef00050022000808f5400040032000900e000fe
:100f0000e6ff3a003f989700840037000000eb00ae
:100f1000909f9f00809f9f00f0979f00e0979f0009
:100f2000d0979f00c0979f0007003700411623000d
:100f3000010050000000400081152300610078008e
:100f4000df98970001007000d09f9f008804780010
:100f500009047800384578008a00fb004016230019
:100f6000050207000000e000f0ff3a00a1c2b30054
:100f7000814f55000e003a00cf8897000180e900ac
:100f8000c08f9f0010007800c09f9f000000e0000d
:100f900005003d000000ea00c09f9f005f98970099
:100fa0000020a000d09f9f000904e8000f00370038
:100fb000c09f9f000000eb0005003700f2ff2700f4
:100fc000820f5000020032006a01b9000280400026
:100fd0000904780088047800b900fb000103b1001f
:100fe000e98f5000f5ff3600c09f9f00e0c2b300bc
:100ff000984f1000020032000080eb00190037000b
:10100000a0c2b300d84f100007003a00cf88970065
:101010000180e900c08f9f0010007800a09f9f0012
:101020000804e800100037000000eb00a09f9f00bc
:101030008800780005003700f3ff2700830f500079
:10104000020032006a02b900040041000104780085
:10105000880078003101fb000203b100e90f510064
:10106000f5ff3600a09f9f00984478008900fb00a0
:1010700000152300c00107000000e000020032005c
:101080000804e800010037008044eb00c97f9f009e
:1010900080c6b30080cf540004003a0098cf1400fb
:1010a0000a003a006640500006003700c0c6b30090
:1010b00080cf540005003a0098cf140003003a0096
:1010c00065404000c07f9f000804e800e3fb2f005c
:1010d0008f8141001841780081f92f008f804000f6
:1010e000a0f92f000f004000100007000000e000f2
:1010f00009003a00e1fb2f008f804000a0f92f008b
:101100000f004000c00707000000e00002003500ab
:101110000804e80061ff37000080eb004f0578000d
:101120004f04be000080fa0000000600889fbe0049
:101130008a1f780000047800824478000305780054
:1011400070c6b30080cf540021003c0000c0e9000d
:1011500080cf5400d5003d007240500080cf540035
:101160003c0132000d003c006c40500080cf540028
:101170004f013c0000c0e90080cf5400cb003d008f
:1011800050c2b30080cf5400460132007c40400082
:1011900080cf540046013a00c400370010c6b300a7
:1011a00080cf5400c100320004003c006940500070
:1011b00080cf54003e013a006900370030c6b300ca
:1011c00080cf5400180032000040e80009003700ca
:1011d00000c7b30080cf54001001320008003c006b
:1011e00000c0e90080cf5400d90032005c003c0010
:1011f0006540500080cf54002d013a000f003700a9
:1012000050c7b30080cf5400550032006340400007
:1012100080cf5400520032006540500080cf54000f
:1012200023013a000b0137001181e90082087800a0
:101230007800900012757800230137002860900034
:10124000c2c6b300824f500007003a001101780077
:1012500064005100800878001000be004f89de0055
:10126000820178001400370012c7b300824f50008b
:1012700003003a00110278006800520005003700b0
:10128000a2c6b300824f500006003a0091027800d7
:1012900068805200800878005001be004000be0007
:1012a000050037001180e900800878001000780000
:1012b000cf80de006109b900009cbe000294be0030
:1012c0002862900085c6b300854f52000d003200a1
:1012d00025c6b300854f520004003a000000fb0011
:1012e000cf80de006109b9000800370045c7b300b0
:1012f000854f520003003200e6c24200854f520083
:1013000004003a00cf80de006109b900009cbe00f5
:101310000294be003802be002803be007800900090
:10132000d1c2b300e00f5200e08f5a00e00f5b0023
:10133000e08f5b0008003500881090000118a300c2
:1013400002003200b1c2b300030037000108a3005d
:101350005100320001c2b300017578004c00370023
:1013600028609000c2c6b300824f500008003a00c7
:101370001103780064005300800878001002be005a
:101380006033b8000400be000601be001400370040
:1013900012c7b300824f500003003a009102780058
:1013a0006880520005003700a2c6b300824f50008b
:1013b00006003a00110378006800530080087800a6
:1013c0005001be004000be00050037001180e9005a
:1013d00080087800100078008000eb006011b800f1
:1013e000009cbe000294be002862900085c6b30037
:1013f000854f52000d00320025c6b300854f5200c4
:1014000004003a000080fb008000eb006011b8008f
:101410000800370045c7b300854f52000300320073
:10142000e6c24200854f520004003a008000eb0003
:101430006011b800009cbe000294be00081090002d
:101440000038a300140032003800be002801be009e
:10145000e00f5000e08f5800e00f5900e08f590076
:101460000d00320080c7b30080cf5400030032006b
:1014700080c5b30080cf540007003a007800900088
:1014800001c3b300017578000000e8000975780019
:101490000000e80070049800780090000005450006
:1014a0006a0498008940780067003700286190003e
:1014b000c0c4b300804f510006003a009103780089
:1014c00068805300800878005001be004000be00d4
:1014d0000500370011017800640051008008780091
:1014e0001000be00610b0700009cbe000294be000d
:1014f000b8009000780090000100e00002003d007c
:10150000d1c2b30008003700881090000118a30072
:1015100002003200b1c2b300030037000108a3008b
:101520000400320001c2b300017578000000e80039
:101530007004980078009000000545006a04980047
:1015400089407800080078005d03070060003700dc
:1015500028619000c3c6b3001180e900834f510099
:10156000220032000a003c00e4c15100834f5100c8
:101570002500320083c1e800834f51001300320080
:10158000e8c15100834f51001e003a000a003700a5
:1015900043c7b300834f51001b003200e6c1410036
:1015a000834f510018003200e9c15100834f5100b0
:1015b00014003a0005003700800878001000780019
:1015c000485c9000084878004100370080087800a7
:1015d00010007800680a9000cfa2de00612bb900ed
:1015e0000498be000690be003900370080087800dd
:1015f0001000780068099000cf91de000288be00dc
:10160000330037001180e90080087800100078006e
:10161000680c9000080878002d0037001180e90060
:101620008008780010007800cf80de006109b900e2
:10163000009cbe000294be007800900000054500aa
:101640006a04980081c7b300080078003f050700ce
:101650001f0037001180e90080087800100578002d
:101660006a049800d80c90000900e00004003d00d6
:101670000a007800d0fd07008004780007003700da
:10168000090178008000eb000a007800b40207002e
:101690000000e000010032008a045000190c98009c
:1016a0000b003700780090000975780006003700bd
:1016b00078009000000545000904e00001003a00b0
:1016c00059c2b300094d78000000e800700498008a
:1016d0000000eb004f0578004f04be00000006003c
:1016e000889fbe008a1f78000004be00c9009000d9
:1016f00069009000808f50000500390009007800d3
:10170000a80207008080eb000000e0001600350012
:10171000084578004900900008587800c0049800f7
:101720001900780000b8a30004003a0000a8a30044
:1017300007003200ea4f540005003a000900780023
:10174000f80107008080eb000000e00006003a008e
:1017500000c0200019006000020032004900900023
:10176000e00498008a80fb00010078004f057800b3
:101770004f04be00000006000001eb00030037002c
:101780000201e8000404e000070032006103b80031
:101790006112b8008601420066427a00814f520011
:1017a000f7ff3a00010037008001eb0003007800ea
:1017b000000006000108780000000600881f78007d
:1017c00002047800080178006f020700080040005a
:1017d0004f047800000006000000fa00881f78001f
:1017e00000047800ea8157003fb99700880078002c
:1017f000e0bd2000070007000000e0000200350007
:101800008040eb00017478004f0478000080fa00fb
:10181000000006006200fa00889fbe008a1f780060
:1018200000057800810478000204780083007800c5
:1018300080f92f000f004000deff07009a979f00fd
:10184000a9979f000000eb00b09f9f001885fb0048
:101850008a04fb000a05ea004f55de005002200012
:10186000808f54000d003200e10f55000b003a004c
:101870000a017800880078002f9097009f919700c8
:1018800003000100a0979f000000e0008e003200de
:101890003f9897000000e800b09f9f000a044400b2
:1018a00050022000808f5400040032000900e00044
:1018b000e6ff3a003f989700840037000000eb00f5
:1018c000909f9f00809f9f00f0979f00e0979f0050
:1018d000d0979f00c0979f0007003700e1172300b3
:1018e0000100500000004000211723006100780033
:1018f000df98970001007000d09f9f008804780057
:1019000009047800384578008a00fb00e0172300be
:1019100099ff07000000e000f0ff3a00a1c2b30009
:10192000814f55000e003a00cf8897000180e900f2
:10193000c08f9f0010007800c09f9f000000e00053
:1019400005003d000000ea00c09f9f005f989700df
:101950000020a000d09f9f000904e8000f0037007e
:10196000c09f9f000000eb0005003700f2ff27003a
:10197000820f5000020032006a01b900028040006c
:101980000904780088047800b900fb000103b10065
:10199000e98f5000f5ff3600c09f9f00e0c2b30002
:1019a000984f1000020032000080eb001900370051
:1019b000a0c2b300d84f100007003a00cf889700ac
:1019c0000180e900c08f9f0010007800a09f9f0059
:1019d0000804e800100037000000eb00a09f9f0003
:1019e0008800780005003700f3ff2700830f5000c0
:1019f000020032006a02b9000400410001047800cc
:101a0000880078003101fb000203b100e90f5100aa
:101a1000f5ff3600a09f9f00984478008900fb00e6
:101a2000a016230054ff07000000e000020032006f
:101a30000804e800010037008044eb00c97f9f00e4
:101a400080c6b30080cf540004003a0098cf140041
:101a50000a003a006640500006003700c0c6b300d6
:101a600080cf540005003a0098cf140003003a00dc
:101a700065404000c07f9f000804e8001801fb009b
:101a8000e3fb2f008f81410081f92f008f80400000
:101a9000a0f92f000f004000100007000000e00038
:101aa00009003a00e1fb2f008f804000a0f92f00d1
:101ab0000f004000540507000000e0000200350060
:101ac0000804e80061ff37000080eb004f05780054
:101ad0004f04be000080fa0000000600889fbe0090
:101ae0008a9fbe00e4c6b300844f5100be0032009e
:101af00010003c006b425200844f5100180032002d
:101b000005003c0054c2b300844f5100f60032007f
:101b100084c5b3000f00370044c6b300844f5100a2
:101b20001400320065424200844f5100f1003a0037
:101b30001000370004c7b300844f5100dd003200ad
:101b40005600350065424200844f51005300320078
:101b500063424200844f5100e6003a004f003700d4
:101b60001181e90082087800f000900012417800ad
:101b7000de00370020629000c5c6b300854f5200da
:101b800007003a00910278006482520084087800cd
:101b90001402be004fabde0086037800140037004d
:101ba00015c7b300854f520003003a0011047800b6
:101bb0006802540005003700a5c6b300854f5200e7
:101bc00006003a0091047800688254008408780086
:101bd0005403be004402be00050037001182e90034
:101be0008408780014027800cfa2de00612bb900cf
:101bf0000498be000690be00a060900088c6b300a6
:101c000088cf50000d00320028c6b30088cf5000a6
:101c100004003a000402fb00cfa2de00612bb900f1
:101c20000800370048c7b30088cf500003003200d7
:101c30006644440088cf500004003a00cfa2de0082
:101c4000612bb9000498be000690be003002be00b1
:101c50002003be00f0009000e00f5200e08f5a0019
:101c6000e00f5b00e08f5b0002003d00d4c2b300d8
:101c700008003700001290000418a3000200320090
:101c8000b4c2b300030037000408a30051003200bf
:101c900004c2b30084f178004c0037002062900049
:101ca000c5c6b300854f520008003a001105780000
:101cb00064025500840878001404be006055b80022
:101cc0000802be000a03be001400370015c7b300a7
:101cd000854f520003003a00910478006882540056
:101ce00005003700a5c6b300854f520006003a0034
:101cf0001105780068025500840878005403be007e
:101d00004402be00050037001182e9008408780013
:101d1000140278008002eb006033b8000498be0023
:101d20000690be00a060900088c6b30088cf500027
:101d30000d00320028c6b30088cf500004003a00de
:101d40000482fb008002eb006033b800080037001b
:101d500048c7b30088cf50000300320066444400f7
:101d600088cf500004003a008002eb006033b800d6
:101d70000498be000690be00801090000138a300b9
:101d8000140032003002be002003be00e00f5200fb
:101d9000e08f5a00e00f5b00e08f5b000d00320027
:101da00081c7b300814f51000300320081c5b300e9
:101db000814f510007003a00f000900004c3b300c7
:101dc00084f178008100e80082f178008100e80069
:101dd00071009800f000900081814100630098003c
:101de000824078003e003700a0619000c4c6b30076
:101df0001181e90084cf5100220032000a003c002a
:101e00006442520084cf51002500320004c2e80031
:101e100084cf5100130032006842520084cf510039
:101e20001e003a000a00370044c7b30084cf5100b7
:101e30001b0032006642420084cf5100180032007d
:101e40006942520084cf510014003a000500370067
:101e5000820878009200780040589000804878000e
:101e60002c0037008208780092007800600a900009
:101e7000cfa2de00612bb9008498be008690be0020
:101e800024003700820878009200780060099000f2
:101e9000cf91de008288be001e0037001181e9006c
:101ea000820878009200780060089000800878002e
:101eb000180037001181e9008208780012027800ca
:101ec000cfa2de00612bb9000498be000690be00d0
:101ed000f0009000818141006300980081c7b30049
:101ee0001a0307000b003700f000900082f1780021
:101ef00006003700f0009000818141000204e000fc
:101f000001003a0052c2b300824978008100e80023
:101f1000710098000000eb004f05be004f04be00aa
:101f200000000600889fbe008a1f78000004780029
:101f30000800e0000d003a0088002300700544000e
:101f40008004eb00580078000000e000040032003c
:101f5000f4ff07000000e00001003d008084eb007a
:101f60008a0f5400f7ff3a002500370000002200d6
:101f7000180060008004eb0021003200a8049000eb
:101f80000f00370009015100384090000000fb00ad
:101f90008900780044fb07000000e00007003c00d7
:101fa000280090004004980060049800500c9800ad
:101fb0001890a0008084eb0011003700808444005a
:101fc00048019000828f5400eeff390028009000f5
:101fd000400498009800780002c020000281600050
:101fe00001003a003800900001e8a300020032002e
:101ff0006004980001003700500c98008004eb004a
:10200000090078004f0578004f04be00000006006c
:10201000889fbe008a9fbe008c9fbe008e1f7800e6
:10202000000678000104780002007800830478003c
:102030000881b900020778000200e0004200320087
:102040000800e0004100320082057800c9009000dd
:1020500069009000808f500004003900090078006a
:10206000500007000000e00029003500004020007b
:10207000190060000a0032000b017800a100200066
:102080000c00780036000700800678000d00e000a4
:1020900006003200610516000a854600040037007c
:1020a0000b0578008006eb00010037000b05780077
:1020b00049009000e9009000808050008a8f500015
:1020c00002003100010578008006eb000a0178006b
:1020d0008c0078002c0007008a855500490090008c
:1020e0000a004000c00498000d00e0000400320027
:1020f000090078008bff07000000e00004003a00b0
:102100000b00e000020032000a064600cfff370055
:1021100000802000190060000200320009007800f1
:1021200080ff070000c0200019006000020032009c
:1021300049009000e00498008b0557001100090049
:102140008885d800010037000000eb004f077800b9
:102150004f06be004f05be004f04be000000060043
:1021600003003700b0cf1000050032000201e90083
:10217000800178000200e000faff3a00000005004c
:10218000030078000000060080017800020037009c
:10219000b15978000201e9000200e000fcff3a00ba
:1021a00000000600889fbe008a1f780000047800a7
:1021b000c8009000680190000000eb00828f500082
:1021c0003c0039001800780022002900020160005c
:1021d000e20f510007003200012024000000e0005f
:1021e00001003d0001202000008c70000080eb0009
:1021f000300037000200260002006000820f50000d
:1022000009003a0038009000808f50000600390025
:102210000800780043ff0700800078000080eb0092
:102220000100e00023003a001805780000c02000fb
:102230000000650018003a00a80490006002200029
:1022400008004000808f540013003a000020200056
:10225000d9050700200498000000e00005003a00be
:1022600029049800490498008904e800390498007a
:10227000080037000a60a0000a0c780040049800ab
:10228000012020008080400031049800400c98001c
:10229000500c98001a040700280090005004980081
:1022a000380090006004980000002600180c7000b0
:1022b0000000eb004f0578004f04be000000060050
:1022c000cf04b000889fbe008a9fbe008c9fbe00d6
:1022d0008e1f780000067800814678003c00be0022
:1022e0002c01be00d0979f00e1979f00f2979f00be
:1022f000839f9f0010c6b30080cf560012003200ab
:1023000010c4b30080cf56000f0032005c0890006c
:102310000000e00002003d006000200009003700de
:102320000000e00008003a0070c6b30080cf5600fd
:102330000300320070c4b30080cf560002003a00a0
:1023400010002000500e98008c00780080fa2f00ba
:102350000f004000d3010700e20f50000f003a00c9
:1023600030002000100e9800a001230011c6b30019
:1023700081cf560019003200e4c0400081cf5600e2
:1023800016003200e00123008140e80081cf5600b2
:1023900012003a00a0012300100037000000e00006
:1023a0001400340030002000100e9800200223009a
:1023b00011c6b30081cf560008003200e4c04000cf
:1023c00081cf560005003200600223008140e80002
:1023d00081cf560001003a0020022300ec0090005b
:1023e000b0487800b06878001040780090409800bd
:1023f000a601370011c6b30081cf5600030032009a
:1024000011c4b30081cf56000e003a00ec009000da
:1024100002c3b300825878006106980082c5b300f9
:1024200013c6b30083cf560001003a0082c7b30041
:102430008258780061069800fc0090008180e800d6
:10244000710698000000e00005003a00c0979f0068
:102450008001eb0022fb2f000f01410087013700b4
:1024600010c6b30080cf56000600320010c4b3007f
:1024700080cf56009a003a00b1032300d1b79f00e5
:1024800002003700a2022300d2b79f005c08900030
:102490001b0220000000e000010035008005e8007c
:1024a0000b05e8006022b8006033b8005f90970029
:1024b000ef9097007f9197008f999700b3060700e0
:1024c000000278003c00be002c01be000400e000c9
:1024d00001003d0003f0a200d0979f00e1979f000c
:1024e000f2979f00839f9f00cf919700e481510056
:1024f000c3979f000040eb00a0779f003efb2f009a
:102500000f07470031003700c20120000300200000
:10251000a0fa2f000f004000470407005f909700cb
:10252000ef9097007f9197008f99970090b79f0049
:10253000a1b79f00b2b79f00c3b79f006a0707000b
:102540000004be00670555004240a9000c0034009d
:10255000910707000002be000203be001fb09700f3
:10256000afb097003fb19700cfb1970018080700b0
:10257000d0979f00e1979f00f2979f00839f9f0055
:102580006707470070002000050037006f67640090
:10259000cc48dd004444de0008847000c4ccde007a
:1025a000e00f5400e08f5c00050034000000e900fb
:1025b000e10f4000f5ff3a00010037000067eb0033
:1025c0000000e900fdff3b00670747000a00e0004c
:1025d000090034006022b8006033b8005f909700b3
:1025e000ef9097007f9197008f9997006c060700f6
:1025f0000000e000c4ff3c0032fb2f000f0141004f
:10260000020757008e0178008b0f5700010034003d
:102610008b0178000300e0002b0035000040eb0048
:102620008e8f51000a003d0082fa2f000f014100f9
:1026300003004100b0489000f0c0b300e7cf500065
:1026400003003c000040eb000100370081017800ee
:102650008300e90034fb2f000f0242000101420019
:1026600012427800804f5200f8ff3200ef4f5000c6
:1026700001003a000449e8000100e00007003d00c5
:102680008301e8004f90970064004000c0979f00ce
:1026900022fb2f000f0141000200370032fb2f0008
:1026a0000f0141000300780005003700e240780088
:1026b0008100fb005fb29700e4c0780001717800f0
:1026c0000000e900f9ff3b005c0890000000e0001a
:1026d000ea003d000300e900500e9800e7003700d3
:1026e0005f949700ef9497007f9597008f9d9700d8
:1026f0006022b8006033b8000800be000a01be00c6
:10270000220607000000e00005003d000bf0a200db
:10271000d8979f00e9979f00fa979f008b9f9f0093
:1027200070592700cf9097000088b900026a2800ee
:10273000130020007906070064045000c8979f002a
:1027400015003b0063041400c0ff2f000004640068
:102750000800ea00c0979f005f909700ef909700f5
:102760007f9197008f999700ca04230007003700d4
:102770000808a300030032003a02be002a03be008c
:102780001d0707000884d100680545000800e00027
:10279000f7ff3c001a0037000800e0001c00320080
:1027a000c0ff2f0000046400c8979f00ca042300e4
:1027b0006000b8000200200003ff2300070037007c
:1027c0000808a300030032003a02be002a03be003c
:1027d000090707000884d100680545000800e000eb
:1027e000f7ff3c000002be000203be005f909700ae
:1027f000ef9097007f9197008f999700ed05070064
:10280000d0979f00e1979f00f2979f00839f9f00c2
:102810005c0f900060c6b30080cf56000400320009
:102820006000200061c4b30081cf560002003a006e
:10283000cf9097006a8040000e074000f30f5700ca
:10284000010034003e01200000c3b300a0779f00c8
:102850003bfb2f008f854500350037005fb09700a8
:10286000efb097007fb197008fb997009e060700e1
:102870000004be00680757004240a9001000340061
:10288000c50607000002be000203be005fb097004d
:10289000efb097007fb197008fb997004c07070002
:1028a0006022b80046782d0077192400d206070070
:1028b000d0979f00e1979f00f2979f00839f9f0012
:1028c000e88545008a0020000801be000c003700a2
:1028d000a400200005002000a0fd2f000f004000f4
:1028e000e80207005fa89700efa897007fa997006c
:1028f0008fb1970004c3b300846541000001be009e
:10290000e00f5100e08f5900060034000a05e9008d
:10291000e10f4500eeff3a000200370000c3b300ac
:10292000806578000a05e900fcff3b00e88545006a
:102930000e00e0000d0034005f909700ef909700cc
:102940007f9197008f999700d0b79f00e1b79f00c4
:10295000f2b79f0083bf9f006022b8006033b800c9
:102960008f0507000000e000bcff3c0031fb2f009a
:102970008f804000818555004f919700670041008e
:10298000c0979f00020037008b05e9000000e900b6
:10299000010178008200780003c3b300b1cf1100b9
:1029a000f9ff3200c0979f00dc09900061c6b300b8
:1029b00081cf56000300320061c4b30081cf5600be
:1029c00002003a000000e800090037001000200073
:1029d00051c6b30081cf5600050032000d4078008b
:1029e00050c4b2000080fb000000e9004f00de0090
:1029f000830140008b8f5100010034008b0178006f
:102a00000300e0001d00350000c3b3008b8f5100b0
:102a100006003d0062c279006940400041c3b30036
:102a2000814f520001003c00694050008300e900e2
:102a30008100410001003700840178000302e900b1
:102a400001037800a142780080cf5200faff3200e3
:102a500091c3b300814f500001003a00054be800dc
:102a60000400e00005003d000201e9008301e800e8
:102a70004f9297000402e800c4979f004f9297007e
:102a80008d4078000c007800f50307004f077800b0
:102a90004f06be004f05be004f04be00cf04b1007c
:102aa00000000600889fbe0000047800e684400015
:102ab0001900d0004500de00f27f2000820f500098
:102ac00010003a00000ceb00990478006f8164005c
:102ad000200020001b003a00210190000200e000cd
:102ae00018003a00110190000200e00015003a00c1
:102af000100020001100e000120032002000200031
:102b0000100037000000e00004003a0001007800e7
:102b10007d0207000000e00008003c00f2002800f1
:102b20001901610001fe2300810c710021c02f00fa
:102b3000010c40000080eb0002003700000ceb00ad
:102b40000000eb004f04be0000000600fc874700b9
:102b5000889fbe008a9fbe008c9fbe008e1f78009b
:102b60000006780080c5b30080cf50000a00320014
:102b70007740400080cf50000a003200694040009a
:102b800080cf50000b003200100f230080bf9f0049
:102b9000ae0020000a003700020e230082bf9f0013
:102ba00006003700130f230083bf9f008e00200014
:102bb00003003700140f230084bf9f000e01200084
:102bc0003c02be002c03be000605be000404be008d
:102bd00040c6b30080cf5000030032006540400083
:102be00080cf50000b003a00e00f5200e08f5a00f7
:102bf000e00f5b00e08f5b0006003d006000b80066
:102c00006011b8000404500085845800060559007e
:102c100087855900e80f570004003200400020006b
:102c2000f00f570038003a00010037003000200054
:102c3000e00f5400e08f5c00e00f5d00e08f5d006e
:102c400004003a00dc0890008d0120000100e00043
:102c5000060032008e00e900888060008fba97007d
:102c6000e5c07800f1ef9f007d0120008000780032
:102c70008100e900050033008b05d1000a85d300ef
:102c80008984d3000884d300f9ff3700089ebe0072
:102c90000a96be00120037008d06e9008e00e9009a
:102ca000848060000fb99700e2c1780082fd2f0098
:102cb0000f01410003f17e00800078008100e900ef
:102cc000050033008783d1000683d3008582d300bb
:102cd0000482d300f9ff3700049ebe000696be00b2
:102ce0003c02be002c03be00e00f5200e08f5a00f1
:102cf000e00f5b00e08f5b008b0034000d00e00014
:102d0000e5ff3c00880037002c60900081c6b300ce
:102d1000814f50000b00320006003c000004e00030
:102d200008003200e6c05000814f50004e003a00cb
:102d300004003700c1c6b300814f50004a003a007a
:102d4000210037000800e00004003a005c08900011
:102d50008d0120000000e000060032001100090093
:102d60000e84d8000fb99700e2c07800f1ef9f0001
:102d70007d012000110009000e84d8000a003700f0
:102d8000110009000e04d8008d06e9000e81b9007b
:102d9000020454008fb8970061417c0081fd2f0030
:102da0008f80400082f07e00000478000800e00080
:102db000020032000d00e000f1ff3c00cfc4de0055
:102dc000614db90025003700e00f5400e08f5c0032
:102dd00004003a005c0890008d0120000000e00033
:102de000070032006171b9000800be000a06070042
:102df0008fb99700e3417800f3ef9f007d01200039
:102e00006171b9000800be00f30507000b00370030
:102e10006171b9000800be00c00407008d06e9001a
:102e200000f1b900020454000fba9700e4427c009c
:102e300084fd2f000f02420005f27e000004be0058
:102e4000e00f5000e08f5800020032000d00e0005b
:102e5000efff3c004fcdde008a057800089ebe00e3
:102e60000a96be0030003700e00f5400e08f5c008f
:102e7000e00f5d00e08f5d0004003a005c08900008
:102e80008d0120000000e000090032006172b900ed
:102e9000612bb9000800be000a01be0087060700ca
:102ea0000fba970064427800f4ef9f007d01200084
:102eb0006172b900612bb9000800be000a01be00b2
:102ec000770607000d0037006172b900612bb90069
:102ed0000800be000a01be007c0607008d06e9005e
:102ee00000f2b900040454008fba970065427c00d8
:102ef00085fd2f008f82420084f27e00009ebe007e
:102f00000296be003c04be002c05be00e00f54003b
:102f1000e08f5c00e00f5d00e08f5d000200340098
:102f20000d00e000e8ff3c00e80f570010003a00f9
:102f30000c1090000038a3000d003200f78f5600ef
:102f400006003e0085fd2f008f824200e5c07e0016
:102f500000c3b30080cf5000050032008d06e900a9
:102f600002c3b30081fd2f008f80400082f07e00fd
:102f700078811600120e98006c00900083fd2f00df
:102f80008f8141008d8041007ffc07001c0890006c
:102f9000dc089000810f500006003d0000805000ca
:102fa000000e98000c1090000040a1000016980040
:102fb0000f0037000100e0000d003d008c10900074
:102fc000f4806000f08f500009003a007c09900006
:102fd000fc009000810051000c099000828050009c
:102fe000008050004240a90001003400000e98000b
:102ff0004f0778004f06be004f05be004f04be00cd
:10300000cf01b100000006000400fa00889fbe0056
:103010008a9fbe008c1f78000004780001067800ab
:10302000f80d900078009000808555000808900009
:10303000808555001808900080855500280890006c
:10304000808555003808900080855500480890001c
:10305000808555000002220090bf9f0000032300de
:10306000a0bf9f00081090000028a30015003a00a0
:103070000b00e000130034000b0578008a04780090
:10308000e20f55000100360029002000c801900021
:1030900009017800ee8057005800900003000100fd
:1030a000500498000000e0008c0032006808900096
:1030b00009004000600c9800090555004240a90035
:1030c000eeff3c00780190000200e0000c003400ac
:1030d000c80190008c0078005800900003000100a7
:1030e000500498008080eb000000e0007c0032007b
:1030f000e80890007800900000804000600c980084
:10310000880c90000900e0001100340009057800e7
:10311000e28f5400010036002a002000c801900010
:103120000a017800ec80570058009000030001006d
:10313000500498000000e000680032006808900029
:103140000a004000600c98008a845400edff3700ac
:10315000180990000200e0000c003400c801900043
:10316000e80090005800900003000100500498000f
:103170008080eb000000e00059003200e808900079
:103180001808900000804000600c9800a80c900087
:103190000900e0001100340009057800e28f5400b6
:1031a000010036002a002000c80190000a017800c2
:1031b000ec80570058009000030001005004980074
:1031c0000000e00045003200680890000a0040005e
:1031d000600c98008a845400edff37003809900095
:1031e0000200e0000e003400e80090001808900093
:1031f00080804000c801900058009000030001004a
:10320000500498008080eb000000e00034003200a1
:10321000e80890003808900000804000600c98009a
:10322000c80c90000900e000110034000905780086
:10323000e28f5400010036002a002000c8019000ef
:103240000a017800ec80570058009000030001004c
:10325000500498000000e000200032006808900050
:103260000a004000600c98008a845400edff37008b
:10327000081090008000eb000028a3001800320026
:103280000b00e000160034008b047800090578007c
:10329000e28f5400010036002a002000c80190008f
:1032a0000a017800ee8057005800900003000100ea
:1032b000500498000000e000080032006808900008
:1032c0000a004000600c98008a8454004240a90023
:1032d000eeff3c008000eb00010037008080eb0037
:1032e000010078004f0678004f05be004f04be0075
:1032f0000080fa000000060020a2210076003700be
:10330000881f7800481a23001804e00003003a00e0
:10331000f9ff070020c0b300004c78004f0478008c
:1033200000000600889fbe000004780008007800b6
:10333000fcfa0700800478000004200018006000f8
:103340000200320028009000360107000000eb0068
:1033500020049800384090000004e000050035008b
:103360000000fb001df607000000e0000100320035
:103370008084eb00181090000000e000080032008c
:103380001ff607000000e000010032008084eb001f
:1033900018109000230107000000eb0010149800a3
:1033a0000008200018006000150032000001eb004a
:1033b0006000b800a30023000202d00063027a007c
:1033c000880f520005003a0000004000818048004c
:1033d000008041000008eb0006003700610040005b
:1033e000e08048000201e800e80f5000e08f58003c
:1033f000f0ff3a00080078000a0107000e003700cd
:10340000000c780000c0eb003044980060022000ff
:1034100008004000200498004004980050049800e0
:10342000400c980060049800500c980070049800bc
:1034300076004400000c9800090078004f04be009c
:1034400000000600881f78000004eb006140b8000f
:10345000e2ff2f00f3ff2f00720407008201230018
:10346000620078000000e00001003200adff0700bc
:103470000804e800e80f5400f4ff3a004f04780015
:1034800000000600881f78008a9fbe008c9fbe0047
:10349000000478000205be000406be000401be0060
:1034a0000a00be001d030700008cbe000c01be0018
:1034b0005c0407000005550081855d002a04980022
:1034c0003b049800080078004f06be004f05be0080
:1034d0004f04780000000600010020000100e00019
:1034e00008003200010080000100e0000500320009
:1034f0008100e900010088008100d0000200800006
:1035000000b1780000000600e600400011017800dc
:1035100005002800850261006f01610082087800c3
:10352000020032001200200011003700a0019000bc
:10353000120020000300e0000d003a00900190000e
:103540000300e0000a003a001000e00008003a0022
:103550003600370064034000960878008001780048
:10356000530b78009009780004087800700151002e
:10357000110278000400e000f6ff3200130037006b
:1035800064024000140378004f33de008381410061
:103590008308730080017800d3037800cf3bde00fe
:1035a0001403780006034300068a730013027800b0
:1035b00004024200100378004f33de0086097200d7
:1035c00090017800038841000201e9009101780030
:1035d000ef8f5100eaff36001000370080017800bd
:1035e000530378004f33dd001002d100040873004c
:1035f0006402400094037800cf3bdd001303d10048
:1036000086897300110378004f33dd009401d100e7
:10361000030a73009108d1000201e80091017800cb
:10362000ff8f5100edff3e00ef886100918872002e
:1036300002007800000006000400fa00889fbe0027
:1036400000047800e6044400190078008000d000ef
:10365000c508de00f47f2000848f50000e003a0081
:10366000ef006000200020006b003a00a8009000ee
:103670000100e00068003a00980090000100e000be
:1036800065003a00100020001800e00062003200df
:1036900020002000600037000100e0000a003a002e
:1036a00008007800c2bf9f00d3bf9f0096ff0700ad
:1036b000800078000000eb004fb99700dfb9970059
:1036c0000100e00054003c004f88de000281400011
:1036d00083014800e07f2000800f5100e08f5900f7
:1036e0000d0034001900e00004003d006000b80047
:1036f0000200200003ff2f00030037006000b80025
:103700000200200003ff2700009cbe000294be00c0
:103710001000200040003700e00f5100e08f5900fa
:10372000050034004411dd00f0002800190060009d
:10373000800c710037003700190078000400280061
:10374000040260006f0060000040a000800c780060
:10375000d0fc2f00f1ff2f00800f5100818f590006
:1037600006003d00840c78000000eb002004980067
:1037700010049800000ceb00270037006f01410097
:103780000600370008007800500c7800e400440080
:103790001108780099087800800ceb007000510047
:1037a0007001410001fe2f0082804000ef8f400039
:1037b000f4ff35000000ea001500320088007800b0
:1037c00070011000d1027800822add009801780093
:1037d0008019de00038c72006404440098027800b3
:1037e000822add00910178008019de008388720052
:1037f000990078000209dd00980078008008de005a
:10380000010c7100990078000008de00800c78003f
:10381000990c72000080eb004f04be000080fa009b
:10382000000006000000e0002f003200c001780018
:10383000e38f51002c0036000308a3002a003a0051
:10384000f18c81000100e00002003200810f500085
:103850000400310011009800f08c89001600370038
:1038600082007800110190000200e00002003200a6
:10387000800f5100faff3900110278008482400065
:10388000850f500018003900808f520003003a0065
:103890008308420001007800070037000200e000c2
:1038a0000300320083014000830f51000e003900f5
:1038b0001200980090009800900090000100e00035
:1038c0000900320010014000828f500006003a00cb
:1038d000c21923000009eb00100178001108410013
:1038e000910090001100980000000600889fbe0023
:1038f00000047800e18c81000100e0000200320049
:10390000010078000d003700f18c8100e0192300e0
:1039100004003700910f5400250036000180e800b4
:10392000910090000100e000faff3a00100037001b
:10393000920f54001e0036000280e800100178004b
:103940000200e000faff3a0011017800f18c8100da
:10395000e019230004003700910f540014003600d2
:103960000180e80091009000828f5000faff3a0039
:10397000398d8100888f540001003100880478005f
:1039800009007800680107000000e00004003a0028
:10399000888f5400050032008904d100f5ff3700fc
:1039a000091878009fff0700d2ff37000000eb00e6
:1039b0004f04be0000000600881f7800630440002a
:1039c0000800a1008000eb00800f540021003600a9
:1039d000e30f540001003e0048002000080078007a
:1039e000c2ff07008000eb000000e0001900320079
:1039f000900078009101780064815100880f510097
:103a00000300310011019000020878000700370020
:103a1000088140000208780091019000130198008d
:103a2000100178001109140088087800100178004e
:103a30000000eb000200e000040032009201900060
:103a40000300e000010032000280e800e08c890001
:103a50008180e800010078004f0478000000060033
:103a6000f0874700889fbe008a9fbe008c9fbe00e3
:103a70008e1f780000047800814478000205be00a3
:103a8000040678000b00e00002003c001b00200050
:103a90008a1a230060c6b30080cf54000e003200a3
:103aa00060c4b30080cf54000b00320070c6b30076
:103ab00080cf54000300320070c4b30080cf5400a4
:103ac00099003a00e40f46007f0035005808900046
:103ad000800f56007c003d000c06e80060c6b30075
:103ae00080cf54001000320060c4b30080cf540077
:103af0000d003200081090000038a30004003a00c6
:103b000058089000808f550001003d005b0c980024
:103b1000580890000c005000500c980002003b0028
:103b20000000eb00500c980018089000e80090008e
:103b30000c00e00026003c0002c3b3008270780055
:103b40000000e800100c9800d80890000100e00088
:103b500003003c00881090000138a30005003200eb
:103b6000e8009000e2c2b300827078000000e80034
:103b7000100c9800580890008c00ea00810f50004b
:103b800001003d000006ea008c00ea00210c9800cc
:103b9000000646005c0c98008b0f560001003400b4
:103ba0000b0678003c0c9800e80090001808900084
:103bb000008040000c0178008a00780072f907004c
:103bc000580890000c0650004c0c9800be003700be
:103bd0008c8f550018003d00008040000b017800dc
:103be0008a00780068f907001808900000804500f6
:103bf000100c98008b0556002b0c9800d8089000ec
:103c00000100e00003003c00881090000138a30090
:103c100006003200e8009000e2c2b3008270780033
:103c2000380890000000e800300c98005808900018
:103c3000400c9800a4003700008040000c01780080
:103c40008a00780050f9070018089000000046002c
:103c5000100c98008c855500d80890000100e000f9
:103c600003003c00881090000138a30005003200da
:103c7000e8009000e2c2b300827078000000e80023
:103c8000100c980058089000808f550001003400f7
:103c900080057800e800900018089000008040003f
:103ca0008c0045000b01780037f9070018089000d8
:103cb0000b004000100c9800580890008b05500035
:103cc0002b0c98008000370070c6b30080cf5400e2
:103cd0000300320070c4b30080cf540012003a00d9
:103ce00058089000808f550004003d000810900097
:103cf0000038a30001003a005b0c980058089000bf
:103d00000000e900500c980002003b000000eb00ae
:103d1000500c980070c6b30080cf540009003a00e0
:103d200059c6b3000c00370010c6b30080cf540052
:103d30000600320010c4b30080cf540006003a00e1
:103d40000400370059c4b3000300370009c7b300ab
:103d50000100370009c5b30018089000e800900082
:103d60009a7078000000e800100c9800d8089000c5
:103d70000100e00003003c00881090000138a3001f
:103d800005003200e8009000e2c2b30082707800c3
:103d90000000e800100c9800580890000000e000b7
:103da000100034008b05e900808f550001003400bd
:103db00080057800e800900018089000008040001e
:103dc0008a00e8000b017800eff80700180890005f
:103dd0000b004000100c9800580890008b05500014
:103de0002b0c9800e800900018089000008040001c
:103df000095878000005e8000c00e00004003500d8
:103e0000b1c2b300014878008a0678000400370088
:103e1000d1c2b300014878008a0678000c06ea0097
:103e2000fd8557000007eb0009003700a2002000c5
:103e30008c00780072805700450007007fb0970023
:103e40008fb89700816d7800000678000e07e800b3
:103e50000c00e000f5ff3c00e10f570013003c00b0
:103e600050c6b30080cf54000300320050c4b300ea
:103e700080cf540003003a008a06780000c3b300e4
:103e8000805e78000e00e00008003a0000c3b30036
:103e9000805e7800050037000e07e900fc805700bf
:103ea00061407f0002c3b300825e40000e00e0006c
:103eb000f9ff3c00e80090001808900000804000e6
:103ec000808656003d0c9800081090007400600039
:103ed000f00f50000e003a00980890007800900013
:103ee00000804000a808900001004000b808900041
:103ef00001004000c808900001004000f808900050
:103f0000810f500002003d0000805000000c98001e
:103f10004f0778004f06be004f05be004f04be009d
:103f20000f01b10000000600800078000000eb00e7
:103f30000100e000050034000100780039f30700bb
:103f4000e10f400001003a000000eb000000060015
:103f50008002780001037800110009000203d800f4
:103f600080017800830a78000299b90002015300a9
:103f700092029800050078000000060000c0da00f8
:103f80000000060000c0da00000006008f1fd1000c
:103f90002b0307008f87e9000000e0000000060007
:103fa000809feb00260307008f87e9000000e000f8
:103fb000000006002800fa00889fbe008a9fbe000d
:103fc0008c9fbe0003866b008f0007006400e10039
:103fd000440032006408e1004a0032006100e10060
:103fe000460032006108e10049003200ec0647005b
:103ff0006000b8003d02be003d03be00f4865700dd
:104000006011b8003d04be003d05be007d032000e8
:104010000b0037000000a0008d06e90013003200fd
:104020000402420085824a0006034b0087834b004e
:10403000000040008180480002014900838149005e
:104040000802520089825a000a035b008b835b00de
:10405000f0ff3b000802420089824a000a034b003d
:104060008b834b008d06e900edff3a0084827200dd
:1040700086827200f707b200878272000100320068
:10408000150020001e0490003e0b90000603540013
:10409000e63fb0000368a300070032000000a7005d
:1040a0000500a0008301d1000281d3008180d300ec
:1040b0000080d3000603e8008301d1000281d30011
:1040c0008180d3000080d3000002eb000482d20084
:1040d0002100070003f0a1000cf0a70003f0a000ee
:1040e0005d003700640247006408e10057003200b9
:1040f0003400be003401be00f6ff37006108e10065
:10410000520032006011b8006000b800f1ff3700c3
:1041100003ff270002002000fbff3700839f680099
:104120000100e00002003d0060001000e080180087
:104130000300e00002003d0060011100e081190071
:10414000250107004f00e00002003b006000100066
:10415000e080180000000600180020005700200032
:10416000080453000d003d000600200097fc2f00be
:104170000740e1001e00340084827200610260008a
:104180008301d1000281d3008180d3000080d3005d
:104190000804e800f8ff3a004700200061046000ce
:1041a00005047400040464000d0032006100400046
:1041b000e080480060014900e081490003b8a500a3
:1041c000070032000603e8006538e10004003a0009
:1041d0008301d1000281d3008180d3000080d3000d
:1041e000f87f20000830e100030035000803780064
:1041f0006000b8006011b8004433dd00f300b20085
:104200008301730000000600680447000294be00aa
:104210000094be00fc0447008694be008494be0057
:1042200009007800cf02070008007800cd020700df
:1042300099007800814f70000b003b000800be0021
:10424000a80207004f00b10003003700f3ff27006a
:10425000f2ff2f006110b9004f06be004f05be00ef
:104260004f04be000080fa000000060081037800c1
:104270004c0007000001be006000b8000478a300f5
:1042800013003a006220e10015003e000d003900e5
:104290008301d1000281d3008180d3008301d1004a
:1042a0000281d3008180d3008301d1000281d30039
:1042b0008180d3000538b000c42add00f300b200cd
:1042c0008381720007f0a70003f0a0000000060041
:1042d000f3ff2700f2ff2f006110b900fbff37004a
:1042e00003ff2700f7ff37001400fa00889fbe0085
:1042f0008a9fbe008c9fbe000004be000205be0067
:10430000680047000a90be000890be0095020700b2
:104310000070a7000bf0a100304320009e02900027
:1043200080825200b0fe2f000028e10011003d0005
:10433000b0fc2f000028e100150034001e09900099
:104340008e0890007e0090000501b0000201d100af
:104350008180d3000080d3008502e800fbff3a0093
:104360000b00e000bcff3b0060001000e080180084
:10437000b9ff3700f0ff2f00f1ff27000b00e0002e
:10438000b5ff3b000100280000002000b2ff37000d
:104390006000b800b0ff37004f89de00820178006e
:1043a00097023700c70ade00f107b200f50fb2002e
:1043b00008003200e1cf4200020032000170a0008c
:1043c00024000500810f7000010032000408050080
:1043d00044000500810f700002003a00140005003f
:1043e0008502e9000000400081c04800fcff3b005e
:1043f0000170a000240005002800fa00889fbe007c
:104400008a9fbe008c9fbe0003866b007eff070064
:104410000028a30064003a000128a30067003a00c6
:104420000008a30062003a000108a30065003a00fa
:104430001e009000be08900081064000ed3fb100d4
:10444000f4805700ee019000111ab8008e09900018
:10445000311bb8009e099000311cb800511db800f6
:10446000f485570046000700fe0190003a0007005f
:104470008b85e8003e0007008e0990004000070091
:10448000ee019000340007008b85e800380007003b
:104490008e099000400007009e0990001b18b8008c
:1044a000890440000a854800fe019000340007009e
:1044b0008b85e80038000700ee019000300007000f
:1044c0008e0990001b18b800890440000a85480036
:1044d0000a98a30008003a000402420085824a00bc
:1044e00006034b0087834b0008044c0089844c0072
:1044f0000a054d008d06e900848272008502730072
:104500004c3add00850272000100320015002000e7
:10451000443ade001400b2004538de00cb45dd0031
:104520000b007000c540de00cb4ddd008b807000bd
:104530004549de00cb55dd000b017100c551de00a1
:104540000d03780004ff070003f0a1000cf0a700a2
:1045500003f0a00040ff37001b18b80085024000a0
:1045600006834800e0834b0060044c0007003700de
:104570001b18b8000603400087834800faff370085
:104580001b18b8008703400008844800e0844c00f2
:1045900060054d00000006001b18b800080440002c
:1045a00089844800faff37000108a30027ff3a007a
:1045b0005800be005801be00e3ff37000008a3000a
:1045c00022ff3a0009047800f9ff370000000000dc
:1045d00007f0a2001c0137006022b800060220008c
:1045e0000000d0008180d2000482d2008582d200f7
:1045f0000000a0000202520083825a000300310032
:104600000202420083824a000000a1000603e90082
:10461000f3ff3a0000000600efff07000400be00b1
:1046200000000600020ab900001bb9000200b80031
:10463000810042008100430000000600889fbe0008
:104640008a9fbe0030044200b0844a0030054b000f
:1046500090854b006000b1000898be000a90be0033
:104660000440e10005c8e10006d0e10007d8e10000
:1046700002003100680040001008e8004f05be004d
:104680004f04be0000000600889fbe008a9fbe0047
:104690003004be002005be000418540005985c00dc
:1046a00006185d0007985d00110020000440e1003d
:1046b00005c8e10006d0e10007d8e100010039009b
:1046c0008000eb00108810004f05be004f04be00b4
:1046d000000006001200fa00889fbe008a9fbe00fc
:1046e0008c9fbe00e0b79f00f1b79f0082bf9f0084
:1046f00093bf9f000605be000404be000000eb004f
:10470000d0b79f00c0b79f00b0b79f00a0b79f0071
:1047100090b79f000006eb005fb19700cfb0970005
:10472000820141003fb097000200e00004003d001c
:10473000370007007e805700c0ff070003003700e6
:10474000330007007e805700cfff0700dfb69700d9
:104750000d00e0000c0035006fb29700ffb297002b
:104760000fbb97009fbb97001000200001002000a6
:104770006011b800000272008182720002037300af
:10478000838373001b0007000c06e800010420006f
:10479000810f5600e0ff3a000d00e00004003d00ec
:1047a0000802be000a03be007e805700a3ff070078
:1047b0005fa897000000e00005003a001fb29700d4
:1047c000afb297003fb39700cfb39700090007003f
:1047d0006fb09700ffb097000fb997009fb997008f
:1047e0004f06be004f05be004f04be000080fa0019
:1047f000000006000100070000000600a4b79f00ab
:10480000b5b79f00c6b79f00d7b79f00000006004e
:104810004f09de0082817100b3b79f004f01de00b7
:104820008180400082807000a1b79f008fb0970008
:104830004f09de00000040000200700090b79f00aa
:104840007fa897004f01de008180400082807000c9
:1048500081b79f000d0007004f3ade0000004000c6
:1048600004007000f0af9f0008000700040242003f
:1048700085824a0006034b0087834b00dfff070059
:104880000802be000a03be00000006002fb2970017
:10489000bfb297004fb39700dfb397000000060048
:1048a000881f780018002000881f780089ff070003
:1048b0008f87e9004f04780000000600801feb009e
:1048c00084ff07008f87e90000000600889fbe0074
:1048d0008a9fbe00e00f5000e08f5800e00f5900a3
:1048e000e08f59000c003d006044b8006055b800ee
:1048f0000000540081805c0002015d0083815d0046
:10490000180020001500070008003d0018000700ef
:104910000004eb00050037000004eb000f00070067
:1049200002003d001200070018002000dcff070015
:104930000800e000060032006022b8006033b800d2
:104940000000520081805a0002015b0083815b00fd
:104950004f05be004f04be0000000600e00f5200ed
:10496000e08f5a00e00f5b00e08f5b000000060064
:104970006044b8006055b8000402540085825c00b1
:1049800006035d0087835d0000000600889fbe006f
:104990008a9fbe008c1f7800e00f5000e08f580007
:1049a000e00f5900e08f59000d003d006044b80051
:1049b0006055b8000000540081805c0002015d0079
:1049c00083815d001c0020000820e10009a8e100af
:1049d0000ab0e1000bb8e1000d003d00080037000f
:1049e0000006eb00e00f5200e08f5a00e00f5b0082
:1049f000e08f5b0006003d006044b8006055b800e1
:104a00000402540085825c0006035d0087835d001c
:104a1000aaff07000c00e000060032006022b80088
:104a20006033b8000000520081805a0002015b0030
:104a300083815b004f0678004f05be004f04be0027
:104a400000000600000000002800fa00889fbe0059
:104a50008a9fbe008c9fbe0007067800878669008b
:104a60000c003b00030478008704780008f0a100e4
:104a700009f0a100840f5000858f5800860f59005f
:104a8000890f5c00030033000cf0a20001003a0023
:104a90000cf0a100dcfd07006400e1005f003200c3
:104aa000780147006408e100610032006c014700b2
:104ab000748557003200be001201be003a04be00e9
:104ac0001a05be001e039000be0a90008503530025
:104ad00006003d000004fd008104fd000205fd000c
:104ae0008305fd008703ea00050378000df8a300a5
:104af0000400320060041400e0841c0060051d0006
:104b0000e0851d006022b8007d0320000d38e10023
:104b10008006eb000b0039004433dd00f300b200e7
:104b20008301730039003700848272000d0278001f
:104b3000e10664008b85d1000a85d3008984d30007
:104b40000884d3008703e900f7ff3b00080040001a
:104b5000898048000a0149008b81490004003b001c
:104b600060001000e080180060011900e081190069
:104b70000358a300090032008d8272008482720003
:104b8000610260008301d1000281d3008180d300e3
:104b90000080d3000603e8001b0037000348a30091
:104ba00017003a000600e000170034000603e90091
:104bb0000d00a30000004800818048000201490068
:104bc000838149000348a3000f003a000600e0007b
:104bd000090034000603e90000004000818048001d
:104be000020149008381490001003a000003eb0003
:104bf0000348a300f5ff32006022b800020037002e
:104c0000848272006182660053fd070003f0a100f8
:104c10000cf0a70003f0a0008ffd370064014700ef
:104c20006408e10002003a000df8a30087fd3a0095
:104c30003200be001201be0087fd370000000000f8
:104c4000889fbe008a9fbe008c9fbe000404be00e9
:104c50000605be00809fbe00829fbe002f00070099
:104c6000040678000800be000a01be002b00070001
:104c7000840678004f03be004f02be008d4f7600c1
:104c80007fb0970013003300f0ff2f008b8f6b0075
:104c900006003b000d0666000c00a7000a00370066
:104ca00007f0a600100020000a003700880f52000d
:104cb000898f5a008a0f5b008b8f5b0003003900dd
:104cc0001000200001003e000000200007f0a700b7
:104cd0000000ea004f06be004f05be004f04be00b4
:104ce00000000600e48240001078a30007003200b4
:104cf000640240001178a3003400be001401be001d
:104d0000040032000330a700000006003500be009a
:104d10001501be000330a0000000060005ff2700bb
:104d200005826100070032000428e1000100320022
:104d3000240005000600070001003a0044000500b9
:104d40000408050002000700f9ff3a0014000500fe
:104d50006f8261008102700085027100850272001d
:104d600000000600800078005002be005003be0024
:104d70004439de00f700b200f37f20000301610038
:104d8000090032000218e10016003a0085017200a5
:104d900083017300838173000008200015003a002e
:104da000400020001300370085017200830173006a
:104db0008381730005003a0004a8be0006a8be0067
:104dc000100020000b0037000201e900040242003d
:104dd00085824a0006034b0087834b000748a300e7
:104de000f9ff32000740a00004a8be0006a8be00dc
:104df000200020008000980092009800000006002b
:104e0000881f7800030478000300e00007003d00dd
:104e100060001000e080180060011900e0811900b6
:104e200002003b0001f02d000300370004000700e2
:104e300008f0a70003f0a0004f047800000006006f
:104e4000889fbe000082700004027100048271001d
:104e50002400320036432000c50020008383cf00a9
:104e60000a0039000541b1008283cf0007003900f4
:104e70000541b1008183cf00040039000541b10034
:104e80008083cf00010039000541b10085c3530084
:104e90006022b800120032000a003b0084827200d7
:104ea000610260008301d1000281d3008180d300c0
:104eb0000080d3000603e8008743e800f7ff3a00cc
:104ec00007003700000040008180480002014900cf
:104ed000838149000603e9008743e900f9ff3a00ae
:0c4ee0009dfc07004f04be00000006000f
:020000040000fa
:104eec004d4e000000530000656e00006469000028
:104efc006e670000204f00006e650000204b000024
:104f0c00657900000a0d000000530000656e00007a
:104f1c00646900006e6700002044000069730000a3
:104f2c00617200006d2000004b650000790a0000e2
:104f3c000d000000536500006e640000696e0000f7
:104f4c0067200000417200006d200000416c0000e1
:104f5c006c2000006b650000790a00000d00000059
:104f6c003132000033340000353600003738000091
:104f7c003930000041420000434400004546000027
:104f8c0047480000494a00004b4c00004d4e0000c1
:104f9c004f5000000a0d000000000000000000004f
:104fac00000000000000000000000000534d000055
:104fbc00004700006f74000020410000726d00007b
:104fcc00696e0000672000005374000061740000db
:104fdc006520000070610000636b000065740000c8
:104fec000a0d0000004700006f7400002053000001
:104ffc0079730000746500006d530000746100004b
:10500c0074750000735000006b740000436f000057
:10501c006465000020700000616300006b65000097
:10502c00740a00000d000000476f0000742000009f
:10503c00506900006e670000207000006163000082
:10504c006b650000740a00000d0000005043000066
:10505c00004700006f740000206100002070000009
:10506c00616300006b65000074200000746f000029
:10507c0020730000656e0000640a00000d00000043
:10508c00446f00006e650000207200006561000036
:10509c00646900006e6700002062000079740000f3
:1050ac00657300000a0d0000000300007280000010
:1050bc00d50100002233000026010000223300003d
:1050cc0026000000476f00007420000055490000c6
:1050dc00204d0000657300007361000067650000df
:1050ec000a0d000000000000ffff0000ffff0000a1
:1050fc00ffff0000ffff0000ffff0000ffff0000ac
:10510c00ff7f00000040000041000000253000003f
:08511c003258000020000000e1
:020000040000fa
:105124000000fa00833e2000a2bc2000c1b9200088
:10513400808e2200100807000080fa00000006009c
:105144000200fa00000f780007c8bf000080fb00cf
:105154006600b9008000780000b52000008040009f
:105164009e00780011019000a10190000288be0009
:10517400b10190002300980007c8bf000040e80078
:1051840007e8b70007c8bf00e94f50000100360028
:105194000768ef000080fa00000006000000fa0033
:1051a400e09920006d1807000080fa000000060056
:1051b4000000fa00a2002000a19c2000e099200039
:1051c400311807000080fa00000006002000fa00f1
:1051d4006a004700a20020008000eb00dcee07001c
:1051e4001000200041110700200020003f1107009b
:1051f400300020003d110700400020003b11070053
:1052040040c1b30020479800f4004700f2852a000b
:1052140007000900b258780030002000fc0f070096
:10522400404180000000e800404188004141800086
:1052340000e82300808f50009e0034002828ef00ef
:105244009d003700818020009140780007c8bf008e
:10525400415f9800505f980000c0eb00605f9800c9
:1052640000c0eb00705f9800c1822a00f0822a001f
:10527400010278008041eb0012c0b3008000780086
:105284000089200021160700600120008044880066
:105294000089200059150700e8070700e0012000f5
:1052a40030070700c0b8200071c0b300014878007f
:1052b400d0b8200031c7b3000148780008c8bf0047
:1052c4000080fb006600b9008000780000b5200073
:1052d4000080400010007800304798003e40900065
:1052e4006f40600030479800e0b82000be40900056
:1052f400014878003e4090000080fb000000e00080
:1053040002003200e60f500012003a0008c8bf0045
:105314000080fb006600b900000078008080e8008f
:1053240000b5200000804000100078008040780024
:10533400f0b820000148780000b920008040eb005c
:105344000148780010b920008040eb000148780043
:105354001f00370008c8bf000080fb006600b900ca
:10536400000078008080e80000b520000080400044
:1053740090407800f0b820000148780008c8bf00c9
:105384000080fb006600b900000078008080e8001f
:1053940000b52000008040009040900000b920003b
:1053a4000148780008c8bf000080fb006600b9000f
:1053b40000007800e400400000b5200000804000b8
:1053c4009040780010b920000148780000000000e7
:1053d40061002000c0b820004000070020079800aa
:1053e4002e0090008040780020b920000148780009
:1053f4002e0090004800de008040780030b9200084
:105404000148780080002000300798000968ef0008
:10541400400020007e0f070009c8bf000040e800dc
:1054240009e8b7000000eb00000f78000b0037001c
:10543400490c07000080fb0040079800ce00900054
:105444001e017800c0b8200000004100de0b0700f8
:105454009e00780001004000000f78003e0090009c
:105464009e007800808f5000f1ff3500a2002000dc
:105474008000eb0060b4200035ee07000000eb0074
:10548400000f780008c8bf000040e80008e8b70033
:1054940008c8bf00e94f5000010036000868ef005b
:1054a40040002000830f07005468ef0063070700e3
:1054b4000100370000000000818020009140780046
:1054c40007c8bf0080cf50005eff3a0030002000c4
:1054d400780f0700590707004fff37000a00fa004a
:1054e40030079800410798000000eb00000f780097
:1054f4000000eb001007980026003700be00900063
:105504001e009000008040009040780041479800c1
:105514000040eb0050479800180037001e00780048
:105524000040780061406000ce40900000c06800f8
:10553400404798001e0078000000d100000f78005a
:105544004e4090000080fb00610060000040780045
:105554000004e0000200320010002a001e0f680060
:105564004e4090000080fb000000d10040479800ae
:105574005e4090000040e800504798005e40900074
:10558400e74f5000e5ff36001e0090000000e800e1
:10559400100798009e0090004e009000808f5000ed
:1055a400d6ff39001e0078000080fa0000000600d3
:1055b4001000fa00e8004700b2852a000300090041
:1055c400b2587800400020002007980001c8bf00ae
:1055d4000004e00071003a00400020000c0f0700b6
:1055e4000000eb0010079800ae0090006800470030
:1055f400750b070010079800400020002d0f0700ce
:10560400a20020008000eb0060b42000d0ed070071
:105614000000eb001007980008003700180b070083
:1056240062b420009e009000810041008048780010
:105634001e0090000000e800100798007b0b070094
